:1010000000000120BD120000E5120000E712000000
:10101000E9120000EB120000ED12000000000000D9
:10102000000000000000000000000000EF120000BF
:10103000F112000000000000F3120000F5120000A1
:10104000F7120000F7120000F7120000F71200007C
:10105000F7120000F7120000F7120000F71200006C
:10106000F7120000F7120000F7120000F71200005C
:10107000F7120000F7120000F7120000F71200004C
:10108000F7120000F7120000F7120000F71200003C
:10109000F7120000F7120000F7120000F71200002C
:1010A000F7120000F7120000F7120000F71200001C
:1010B000F7120000F712000000000000000000001E
:1010C000F7120000F7120000F7120000F7120000FC
:1010D000F7120000F7120000F712000000000000F5
:1010E0000000000000000000000000000000000000
:1010F00000000000000000000000000000000000F0
:1011000000000000000000000000000000000000DF
:1011100000000000000000000000000000000000CF
:1011200000000000000000000000000000000000BF
:1011300000000000000000000000000000000000AF
:10114000000000000000000000000000000000009F
:10115000000000000000000000000000000000008F
:10116000000000000000000000000000000000007F
:10117000000000000000000000000000000000006F
:10118000000000000000000000000000000000005F
:10119000000000000000000000000000000000004F
:1011A000000000000000000000000000000000003F
:1011B000000000000000000000000000000000002F
:1011C000000000000000000000000000000000001F
:1011D000000000000000000000000000000000000F
:1011E00000000000000000000000000000000000FF
:1011F00000000000000000000000000000000000EF
:1012000010B5054C237833B9044B13B10448AFF340
:1012100000800123237010BD6C000020000000003E
:101220002C18000008B5034B1BB103490348AFF36A
:10123000008008BD00000000700000202C18000095
:10124000A3F5803A704700BF174B002B08BF134B24
:101250009D46FFF7F5FF00218B460F461348144AC1
:10126000121A00F0B3FA0E4B002B00D098470D4B2A
:10127000002B00D098470020002104000D000D48ED
:10128000002802D00C48AFF3008000F07BFA200069
:10129000290000F071F800F061FA00BF00000800BA
:1012A0000000000000000000000001206C00002091
:1012B0008800002000000000000000000649074AE6
:1012C000074B9B1A03DD043BC858D050FBDC00F0F1
:1012D0006BF8FFF7B9FF000038180000000000208D
:1012E0006C000020FEE7FEE7FEE7FEE7FEE7FEE714
:1012F000FEE7FEE7FEE7FEE7074B4FF0A041185C74
:10130000D1F804350122824022EA03001340C1F8DB
:101310000805C1F80C357047F8170000C20730B453
:101320001AD54FF0A0430322C3F844274FF40035E9
:10133000C3F848274FF48024C3F84C274FF400210A
:10134000C3F850274FF48012C3F80855C3F8084576
:10135000C3F80815C3F8082583070AD54FF0A04342
:101360000C22C3F83427C3F83827C3F83C27C3F846
:10137000402730BC704700BF70B50120094DFFF712
:10138000CDFF45F0010500263046FFF7B5FF4FF4CD
:10139000FA744FF47A40A847013CFAD10136042E82
:1013A000F2D1F0E70018000030B4B24B1B68591CB2
:1013B00004BFB14B1B78062B05D1B04BB04A1B685C
:1013C000C3F304231360AC4B1B78062B00F0FD80A5
:1013D000A84B1B685A1C04BFA74B1B78062B05D1D2
:1013E000A84BA94A1B68C3F342331360A24B1B7876
:1013F000062B00F0D7809F4B1B685D1C04BF9E4BE3
:101400001B78062B08D14FF080430022C3F80C2133
:10141000C3F81021C3F83825974B1B78062B00F032
:10142000A180944B1A68541C24D0984B062A1B6840
:1014300028D0974AD2F8883043F47003C2F8883035
:10144000BFF34F8FBFF36F8F8A4B1B68062B00F0E3
:10145000CD804FF01023D3F80022002AC0F246813D
:10146000D3F80432002BC0F241818A4B8A4A1A60B9
:1014700030BC70478049894B09781B680629D8D150
:10148000C3F30313033B042B40F2CA804FF0805296
:10149000834BD2F80414C3F82015D2F80814C3F80B
:1014A0002415D2F80C14C3F82815D2F81014C3F878
:1014B0002C15D2F81414C3F83015D2F81814C3F848
:1014C0003415D2F81C14C3F84015D2F82014C3F810
:1014D0004415D2F82414C3F84815D2F82814C3F8D8
:1014E0004C15D2F82C14C3F85015D2F83014C3F8A8
:1014F0005415D2F83414C3F86015D2F83814C3F870
:101500006415D2F83C14C3F86815D2F84014594851
:10151000C3F86C15D2F844140268C3F87015501C57
:1015200000F0A280062A84D15E4B524A1B685E49B5
:10153000126803F04F030B60511C77D0062A7FF42A
:1015400078AF4FF08043D3F80034DA077AD44F4BAA
:101550001B68033B042B5DD9544A136843F4806332
:10156000136066E74D4B1B68C3F30313033B042B67
:101570003FF657AF4E4AD25C12B14E4A032111607A
:101580004D4AD35C002B3FF44CAF4C4A4C4C4D4978
:101590004D4B05201060012500203F22256008608A
:1015A0001A603EE73D4B1B68C3F30313033B042B58
:1015B0003FF621AF454AD35C002B3FF41CAF444AB1
:1015C000D36823F08073D36015E7344B1B68C3F3F3
:1015D0000313033B042B3FF6FBAE3E4AD35C002BC8
:1015E0003FF4F6AE3C4B3D4A1A60F1E6274B1B68D0
:1015F000033B042B08D94FF010224FF08043D2F860
:101600000822C3F8582524E7354AD35C002B3FF461
:1016100020AFF0E7334AD35C002B3FF40AAF9BE7DF
:101620003149CB5C002B3FF47AAF2FE7124B1B788C
:10163000062B7FF4FEAE4FF08043D3F80034DB0777
:101640007FF5F7AE0B4B1B684FF080426FF0010146
:10165000062BC2F800147FF4ECAE0C4B1B68033B66
:10166000042B3FF679AFD5E7034B1B78062B3FF4ED
:101670005BAFDEE630010010E00F00F02403001045
:1016800040350140440200103C0500403401001088
:1016900000ED00E0000000200090D003E80F00F013
:1016A00000C0004058020010E40E00403C1700400B
:1016B00020180000A005004020180000105600402F
:1016C000885600401856004014560040201800006C
:1016D000F0ED00E02018000074C007400DF0ADBA36
:1016E000181800001018000008180000184A0123FC
:1016F000C2F80435D2F80034002BFBD04FF0102391
:101700001521134AC3F80012D2F80034002BFBD085
:101710004FF0102315210E4AC3F80412D2F80034FA
:10172000002BFBD000230A49C2F80435D1F800345D
:10173000002BFBD0BFF34F8F0649074BCA6802F45A
:10174000E0621343CB60BFF34F8F00BFFDE700BFE4
:1017500000E0014000ED00E00400FA0508B5074B89
:10176000044613B10021AFF30080054B1868836A6B
:1017700003B19847204600F031F800BF0000000098
:101780002818000070B50D4D0D4C641BA4100026E8
:10179000A64209D10B4D0C4C00F022F8641BA4109A
:1017A0000026A64205D170BD55F8043B9847013686
:1017B000EEE755F8043B98470136F2E76400002055
:1017C00064000020640000206800002002440346FA
:1017D000934200D1704703F8011BF9E7FEE700BF11
:1017E000F8B500BFF8BC08BC9E467047F8B500BF0E
:1017F000F8BC08BC9E46704711121314000000008C
:101800000338FDD87047000000000101010000000E
:1018100000000001010000000000000001000000C5
:101820000100000000000000040000200000000093
:0818300010FAFF7F0100000027
:101838000090D0030000000000000000000000003D
:101848000000000000000000000000000000000090
:101858000000000000000000000000000000000080
:101868000000000000000000000000000000000070
:101878000000000000000000000000000000000060
:101888000000000000000000000000000000000050
:0C189800000000002512000001120000FA
:04000003000012BD2A
:00000001FF
